:020000040000FA
:100000008316031300308600003087000F3088000D
:1000100083120313871521308600871107162230BB
:1000200086000712132810308800081846203D204B
:1000300088184A203D2008194E203D201F282030D6
:100040008800081852203D20881856203D200819A5
:100050005A203D202B284030880008185E203D2083
:10006000881862203D20081966203D2037288030FE
:100070008800881842203D200A28880B3D28890BDB
:100080003D2808006A20AA30A10008006A20EF304D
:10009000A10008006A200530A10008006A20923003
:1000A000A10008006A206430A10008006A20CA305C
:1000B000A10008006A209F30A10008006A20853056
:1000C000A10008006A205230A10008006A20D43044
:0A00D000A10008002130A200080082
:0400DA0000340034BA
:02400E00F42F8D
:00000001FF
