:020000040000FA
:1000000083160313003087008800831603178801C6
:10001000890183120313870188011030A100BB30CE
:04002000A2003128E1
:040024000034003470
:100060000310A20C221C6620A20C221C9320A20CBE
:10007000221CC1203128870188012108870008152A
:100080000310A10C061848205C2003184C28080017
:10009000A10DA10D5C200800FF308700FF30880013
:1000A000061856285C205C20A20C4C2810308700D3
:1000B00088010816031031285F309500EB30960058
:1000C000950B6328960B602865280800CF308700C1
:1000D000C03088005C203B20CF3087006030880033
:1000E0005C203B20CF308700303088005C203B20F4
:1000F000CF308700183088005C203B20CF3087004D
:100100000C3088005C203B20EE20CF30870006308A
:1001100088005C203B20EE20CF3087000330880031
:100120005C203B200800E7308700C03088005C205E
:100130003B20E7308700603088005C203B20A20C29
:10014000E7308700303088005C203B20E7308700B4
:10015000183088005C203B20E73087000C30880096
:100160005C203B20F320E7308700063088005C20CD
:100170003B20F320E7308700033088005C203B20E1
:100180000800F3308700C03088005C203B20F3304B
:100190008700603088005C203B20F33087003030DF
:1001A00088005C203B20F3308700183088005C20FA
:1001B0003B20F33087000C3088005C203B20F82087
:1001C000F3308700063088005C203B20F820F330B5
:1001D0008700033088005C203B200800071E4C206D
:1001E000871E4C200800871D4C20071E4C2008004D
:0A01F000071D4C20871D4C2008005D
:02400E00D62CAE
:02401000FF3F70
:00000001FF
